{
  "contractName": "Vouch",
  "abi": [
    {
      "anonymous": false,
      "inputs": [
        {
          "indexed": false,
          "internalType": "uint256",
          "name": "_time",
          "type": "uint256"
        },
        {
          "indexed": false,
          "internalType": "address",
          "name": "_from",
          "type": "address"
        },
        {
          "indexed": false,
          "internalType": "address",
          "name": "_to",
          "type": "address"
        }
      ],
      "name": "VouchLog",
      "type": "event"
    },
    {
      "inputs": [
        {
          "internalType": "uint256",
          "name": "",
          "type": "uint256"
        }
      ],
      "name": "nodes",
      "outputs": [
        {
          "internalType": "address",
          "name": "",
          "type": "address"
        }
      ],
      "stateMutability": "view",
      "type": "function",
      "constant": true
    },
    {
      "inputs": [
        {
          "internalType": "uint256",
          "name": "",
          "type": "uint256"
        }
      ],
      "name": "punlishment_list",
      "outputs": [
        {
          "internalType": "address",
          "name": "",
          "type": "address"
        }
      ],
      "stateMutability": "view",
      "type": "function",
      "constant": true
    },
    {
      "inputs": [
        {
          "internalType": "uint256",
          "name": "",
          "type": "uint256"
        }
      ],
      "name": "ranked",
      "outputs": [
        {
          "internalType": "address",
          "name": "",
          "type": "address"
        }
      ],
      "stateMutability": "view",
      "type": "function",
      "constant": true
    },
    {
      "inputs": [],
      "name": "reset_tokenPrice",
      "outputs": [
        {
          "internalType": "uint256",
          "name": "",
          "type": "uint256"
        }
      ],
      "stateMutability": "view",
      "type": "function",
      "constant": true
    },
    {
      "inputs": [
        {
          "internalType": "address",
          "name": "",
          "type": "address"
        }
      ],
      "name": "vouchedList",
      "outputs": [
        {
          "internalType": "bool",
          "name": "isVouched",
          "type": "bool"
        },
        {
          "internalType": "bool",
          "name": "isAdded",
          "type": "bool"
        },
        {
          "internalType": "bool",
          "name": "isinitVouchtoken",
          "type": "bool"
        },
        {
          "internalType": "uint256",
          "name": "total_inbound_link",
          "type": "uint256"
        },
        {
          "internalType": "uint256",
          "name": "total_outbound_link",
          "type": "uint256"
        },
        {
          "internalType": "uint256",
          "name": "prScore",
          "type": "uint256"
        },
        {
          "internalType": "uint256",
          "name": "ranking",
          "type": "uint256"
        },
        {
          "internalType": "uint256",
          "name": "vouch_token",
          "type": "uint256"
        }
      ],
      "stateMutability": "view",
      "type": "function",
      "constant": true
    },
    {
      "inputs": [],
      "name": "purchase_vouchToken",
      "outputs": [],
      "stateMutability": "payable",
      "type": "function",
      "payable": true
    },
    {
      "inputs": [
        {
          "internalType": "address",
          "name": "_node",
          "type": "address"
        }
      ],
      "name": "purchase_vouchToken_Test",
      "outputs": [],
      "stateMutability": "nonpayable",
      "type": "function"
    },
    {
      "inputs": [
        {
          "internalType": "address",
          "name": "_targetnode",
          "type": "address"
        }
      ],
      "name": "delete_node",
      "outputs": [],
      "stateMutability": "nonpayable",
      "type": "function"
    },
    {
      "inputs": [
        {
          "internalType": "address",
          "name": "_vouchTo",
          "type": "address"
        }
      ],
      "name": "makeVouch",
      "outputs": [],
      "stateMutability": "nonpayable",
      "type": "function"
    },
    {
      "inputs": [
        {
          "internalType": "address",
          "name": "_unvouchTo",
          "type": "address"
        }
      ],
      "name": "unvouched",
      "outputs": [],
      "stateMutability": "nonpayable",
      "type": "function"
    },
    {
      "inputs": [],
      "name": "getNodesCount",
      "outputs": [
        {
          "internalType": "uint256",
          "name": "",
          "type": "uint256"
        }
      ],
      "stateMutability": "view",
      "type": "function",
      "constant": true
    },
    {
      "inputs": [
        {
          "internalType": "address",
          "name": "_node",
          "type": "address"
        }
      ],
      "name": "get_scores",
      "outputs": [
        {
          "internalType": "uint256",
          "name": "",
          "type": "uint256"
        }
      ],
      "stateMutability": "view",
      "type": "function",
      "constant": true
    }
  ],
  "bytecode": "0x6080604052336000806101000a81548173ffffffffffffffffffffffffffffffffffffffff021916908373ffffffffffffffffffffffffffffffffffffffff160217905550670de0b6b3a764000060045534801561005c57600080fd5b506133b18061006c6000396000f3fe6080604052600436106100a75760003560e01c8063927f052411610064578063927f0524146101e9578063a05837ca14610226578063a7f3fc9414610263578063a8e06de01461028c578063aeeecbc5146102b5578063b9bebefc146102bf576100a7565b80631c53c280146100ac57806330856030146100e9578063366aac441461011257806361ea72081461014f5780637049a7931461017a5780637da2a078146101a5575b600080fd5b3480156100b857600080fd5b506100d360048036038101906100ce9190612baf565b6102e8565b6040516100e09190612c1d565b60405180910390f35b3480156100f557600080fd5b50610110600480360381019061010b9190612c64565b610327565b005b34801561011e57600080fd5b5061013960048036038101906101349190612c64565b610333565b6040516101469190612ca0565b60405180910390f35b34801561015b57600080fd5b5061016461037f565b6040516101719190612ca0565b60405180910390f35b34801561018657600080fd5b5061018f610391565b60405161019c9190612ca0565b60405180910390f35b3480156101b157600080fd5b506101cc60048036038101906101c79190612c64565b610397565b6040516101e0989796959493929190612cd6565b60405180910390f35b3480156101f557600080fd5b50610210600480360381019061020b9190612baf565b610406565b60405161021d9190612c1d565b60405180910390f35b34801561023257600080fd5b5061024d60048036038101906102489190612baf565b610445565b60405161025a9190612c1d565b60405180910390f35b34801561026f57600080fd5b5061028a60048036038101906102859190612c64565b610484565b005b34801561029857600080fd5b506102b360048036038101906102ae9190612c64565b610c04565b005b6102bd6117d3565b005b3480156102cb57600080fd5b506102e660048036038101906102e19190612c64565b611830565b005b600181815481106102f857600080fd5b906000526020600020016000915054906101000a900473ffffffffffffffffffffffffffffffffffffffff1681565b610330816120ea565b50565b6000600560008373ffffffffffffffffffffffffffffffffffffffff1673ffffffffffffffffffffffffffffffffffffffff168152602001908152602001600020600701549050919050565b60008060018054905090508091505090565b60045481565b60056020528060005260406000206000915090508060040160009054906101000a900460ff16908060040160019054906101000a900460ff16908060040160029054906101000a900460ff16908060050154908060060154908060070154908060080154908060090154905088565b6003818154811061041657600080fd5b906000526020600020016000915054906101000a900473ffffffffffffffffffffffffffffffffffffffff1681565b6002818154811061045557600080fd5b906000526020600020016000915054906101000a900473ffffffffffffffffffffffffffffffffffffffff1681565b8060001515600560008373ffffffffffffffffffffffffffffffffffffffff1673ffffffffffffffffffffffffffffffffffffffff16815260200190815260200160002060000160003373ffffffffffffffffffffffffffffffffffffffff1673ffffffffffffffffffffffffffffffffffffffff16815260200190815260200160002060009054906101000a900460ff16151514610558576040517f08c379a000000000000000000000000000000000000000000000000000000000815260040161054f90612dd7565b60405180910390fd5b3373ffffffffffffffffffffffffffffffffffffffff168173ffffffffffffffffffffffffffffffffffffffff16036105c6576040517f08c379a00000000000000000000000000000000000000000000000000000000081526004016105bd90612e69565b60405180910390fd5b60011515600560003373ffffffffffffffffffffffffffffffffffffffff1673ffffffffffffffffffffffffffffffffffffffff16815260200190815260200160002060040160029054906101000a900460ff1615151461065c576040517f08c379a000000000000000000000000000000000000000000000000000000000815260040161065390612efb565b60405180910390fd5b6032600560003373ffffffffffffffffffffffffffffffffffffffff1673ffffffffffffffffffffffffffffffffffffffff16815260200190815260200160002060090154116106e1576040517f08c379a00000000000000000000000000000000000000000000000000000000081526004016106d890612f67565b60405180910390fd5b6001600560008473ffffffffffffffffffffffffffffffffffffffff1673ffffffffffffffffffffffffffffffffffffffff16815260200190815260200160002060040160006101000a81548160ff0219169083151502179055506001600560008473ffffffffffffffffffffffffffffffffffffffff1673ffffffffffffffffffffffffffffffffffffffff16815260200190815260200160002060000160003373ffffffffffffffffffffffffffffffffffffffff1673ffffffffffffffffffffffffffffffffffffffff16815260200190815260200160002060006101000a81548160ff021916908315150217905550600560008373ffffffffffffffffffffffffffffffffffffffff1673ffffffffffffffffffffffffffffffffffffffff168152602001908152602001600020600201339080600181540180825580915050600190039060005260206000200160009091909190916101000a81548173ffffffffffffffffffffffffffffffffffffffff021916908373ffffffffffffffffffffffffffffffffffffffff1602179055506001600560003373ffffffffffffffffffffffffffffffffffffffff1673ffffffffffffffffffffffffffffffffffffffff16815260200190815260200160002060010160008473ffffffffffffffffffffffffffffffffffffffff1673ffffffffffffffffffffffffffffffffffffffff16815260200190815260200160002060006101000a81548160ff021916908315150217905550600560003373ffffffffffffffffffffffffffffffffffffffff1673ffffffffffffffffffffffffffffffffffffffff168152602001908152602001600020600301829080600181540180825580915050600190039060005260206000200160009091909190916101000a81548173ffffffffffffffffffffffffffffffffffffffff021916908373ffffffffffffffffffffffffffffffffffffffff1602179055506001600560008473ffffffffffffffffffffffffffffffffffffffff1673ffffffffffffffffffffffffffffffffffffffff1681526020019081526020016000206005016000828254610a059190612fb6565b925050819055506001600560003373ffffffffffffffffffffffffffffffffffffffff1673ffffffffffffffffffffffffffffffffffffffff1681526020019081526020016000206006016000828254610a5f9190612fb6565b92505081905550610a6f82612190565b610a7833612190565b6001600560008473ffffffffffffffffffffffffffffffffffffffff1673ffffffffffffffffffffffffffffffffffffffff16815260200190815260200160002060040160016101000a81548160ff0219169083151502179055506001600560003373ffffffffffffffffffffffffffffffffffffffff1673ffffffffffffffffffffffffffffffffffffffff16815260200190815260200160002060040160016101000a81548160ff021916908315150217905550610bc56001805480602002602001604051908101604052809291908181526020018280548015610bb357602002820191906000526020600020905b8160009054906101000a900473ffffffffffffffffffffffffffffffffffffffff1673ffffffffffffffffffffffffffffffffffffffff1681526020019060010190808311610b69575b5050505050610bc061037f565b612252565b7fd44fe29ab958d24736136df4e28efae29e56c8ef613dee82b153782629272125423384604051610bf893929190612fea565b60405180910390a15050565b6000600560008373ffffffffffffffffffffffffffffffffffffffff1673ffffffffffffffffffffffffffffffffffffffff16815260200190815260200160002060030180549050905060005b81811015611151576000600560008573ffffffffffffffffffffffffffffffffffffffff1673ffffffffffffffffffffffffffffffffffffffff1681526020019081526020016000206003018281548110610caf57610cae613021565b5b9060005260206000200160009054906101000a900473ffffffffffffffffffffffffffffffffffffffff1690506000600560008373ffffffffffffffffffffffffffffffffffffffff1673ffffffffffffffffffffffffffffffffffffffff16815260200190815260200160002060000160008673ffffffffffffffffffffffffffffffffffffffff1673ffffffffffffffffffffffffffffffffffffffff16815260200190815260200160002060006101000a81548160ff0219169083151502179055506000600560008373ffffffffffffffffffffffffffffffffffffffff1673ffffffffffffffffffffffffffffffffffffffff16815260200190815260200160002060020180549050905060005b81811015610f0f578573ffffffffffffffffffffffffffffffffffffffff16600560008573ffffffffffffffffffffffffffffffffffffffff1673ffffffffffffffffffffffffffffffffffffffff1681526020019081526020016000206002018281548110610e3457610e33613021565b5b9060005260206000200160009054906101000a900473ffffffffffffffffffffffffffffffffffffffff1673ffffffffffffffffffffffffffffffffffffffff1603610efc57600560008473ffffffffffffffffffffffffffffffffffffffff1673ffffffffffffffffffffffffffffffffffffffff1681526020019081526020016000206002018181548110610ece57610ecd613021565b5b9060005260206000200160006101000a81549073ffffffffffffffffffffffffffffffffffffffff02191690555b8080610f0790613050565b915050610dc1565b506001600560008473ffffffffffffffffffffffffffffffffffffffff1673ffffffffffffffffffffffffffffffffffffffff1681526020019081526020016000206005016000828254610f639190613098565b925050819055506000600560008473ffffffffffffffffffffffffffffffffffffffff1673ffffffffffffffffffffffffffffffffffffffff16815260200190815260200160002060050154148015610ffe57506000600560008473ffffffffffffffffffffffffffffffffffffffff1673ffffffffffffffffffffffffffffffffffffffff16815260200190815260200160002060060154145b1561113c576000600180549050905060005b818110156110de578373ffffffffffffffffffffffffffffffffffffffff166001828154811061104357611042613021565b5b9060005260206000200160009054906101000a900473ffffffffffffffffffffffffffffffffffffffff1673ffffffffffffffffffffffffffffffffffffffff16036110cb576001818154811061109d5761109c613021565b5b9060005260206000200160006101000a81549073ffffffffffffffffffffffffffffffffffffffff02191690555b80806110d690613050565b915050611010565b506000600560008573ffffffffffffffffffffffffffffffffffffffff1673ffffffffffffffffffffffffffffffffffffffff16815260200190815260200160002060040160016101000a81548160ff021916908315150217905550505b5050808061114990613050565b915050610c51565b506000600560008473ffffffffffffffffffffffffffffffffffffffff1673ffffffffffffffffffffffffffffffffffffffff16815260200190815260200160002060020180549050905060005b81811015611707576000600560008673ffffffffffffffffffffffffffffffffffffffff1673ffffffffffffffffffffffffffffffffffffffff16815260200190815260200160002060020182815481106111fd576111fc613021565b5b9060005260206000200160009054906101000a900473ffffffffffffffffffffffffffffffffffffffff1690506000600560008373ffffffffffffffffffffffffffffffffffffffff1673ffffffffffffffffffffffffffffffffffffffff16815260200190815260200160002060010160008773ffffffffffffffffffffffffffffffffffffffff1673ffffffffffffffffffffffffffffffffffffffff16815260200190815260200160002060006101000a81548160ff0219169083151502179055506000600560008373ffffffffffffffffffffffffffffffffffffffff1673ffffffffffffffffffffffffffffffffffffffff16815260200190815260200160002060030180549050905060005b8181101561145d578673ffffffffffffffffffffffffffffffffffffffff16600560008573ffffffffffffffffffffffffffffffffffffffff1673ffffffffffffffffffffffffffffffffffffffff168152602001908152602001600020600301828154811061138257611381613021565b5b9060005260206000200160009054906101000a900473ffffffffffffffffffffffffffffffffffffffff1673ffffffffffffffffffffffffffffffffffffffff160361144a57600560008473ffffffffffffffffffffffffffffffffffffffff1673ffffffffffffffffffffffffffffffffffffffff168152602001908152602001600020600301818154811061141c5761141b613021565b5b9060005260206000200160006101000a81549073ffffffffffffffffffffffffffffffffffffffff02191690555b808061145590613050565b91505061130f565b506001600560008473ffffffffffffffffffffffffffffffffffffffff1673ffffffffffffffffffffffffffffffffffffffff16815260200190815260200160002060060160008282546114b19190613098565b925050819055506000600560008473ffffffffffffffffffffffffffffffffffffffff1673ffffffffffffffffffffffffffffffffffffffff1681526020019081526020016000206005015414801561154c57506000600560008473ffffffffffffffffffffffffffffffffffffffff1673ffffffffffffffffffffffffffffffffffffffff16815260200190815260200160002060060154145b1561168e576000600180549050905060005b8181101561162c578373ffffffffffffffffffffffffffffffffffffffff166001828154811061159157611590613021565b5b9060005260206000200160009054906101000a900473ffffffffffffffffffffffffffffffffffffffff1673ffffffffffffffffffffffffffffffffffffffff160361161957600181815481106115eb576115ea613021565b5b9060005260206000200160006101000a81549073ffffffffffffffffffffffffffffffffffffffff02191690555b808061162490613050565b91505061155e565b506000600560008573ffffffffffffffffffffffffffffffffffffffff1673ffffffffffffffffffffffffffffffffffffffff16815260200190815260200160002060040160016101000a81548160ff021916908315150217905550506116f2565b6003829080600181540180825580915050600190039060005260206000200160009091909190916101000a81548173ffffffffffffffffffffffffffffffffffffffff021916908373ffffffffffffffffffffffffffffffffffffffff1602179055505b505080806116ff90613050565b91505061119f565b50600061171261037f565b90506000600380549050905060005b818110156117cb5760006003828154811061173f5761173e613021565b5b9060005260206000200160009054906101000a900473ffffffffffffffffffffffffffffffffffffffff1690506117768185612787565b6003828154811061178a57611789613021565b5b9060005260206000200160006101000a81549073ffffffffffffffffffffffffffffffffffffffff02191690555080806117c390613050565b915050611721565b505050505050565b33670de0b6b3a7640000341461181e576040517f08c379a00000000000000000000000000000000000000000000000000000000081526004016118159061313e565b60405180910390fd5b600033905061182c816120ea565b5050565b8060011515600560008373ffffffffffffffffffffffffffffffffffffffff1673ffffffffffffffffffffffffffffffffffffffff16815260200190815260200160002060000160003373ffffffffffffffffffffffffffffffffffffffff1673ffffffffffffffffffffffffffffffffffffffff16815260200190815260200160002060009054906101000a900460ff16151514611904576040517f08c379a00000000000000000000000000000000000000000000000000000000081526004016118fb906131d0565b60405180910390fd5b6000600560008473ffffffffffffffffffffffffffffffffffffffff1673ffffffffffffffffffffffffffffffffffffffff16815260200190815260200160002060040160006101000a81548160ff0219169083151502179055506000600560008473ffffffffffffffffffffffffffffffffffffffff1673ffffffffffffffffffffffffffffffffffffffff16815260200190815260200160002060000160003373ffffffffffffffffffffffffffffffffffffffff1673ffffffffffffffffffffffffffffffffffffffff16815260200190815260200160002060006101000a81548160ff0219169083151502179055506000600560008473ffffffffffffffffffffffffffffffffffffffff1673ffffffffffffffffffffffffffffffffffffffff16815260200190815260200160002060020180549050905060005b81811015611b92573373ffffffffffffffffffffffffffffffffffffffff16600560008673ffffffffffffffffffffffffffffffffffffffff1673ffffffffffffffffffffffffffffffffffffffff1681526020019081526020016000206002018281548110611ab757611ab6613021565b5b9060005260206000200160009054906101000a900473ffffffffffffffffffffffffffffffffffffffff1673ffffffffffffffffffffffffffffffffffffffff1603611b7f57600560008573ffffffffffffffffffffffffffffffffffffffff1673ffffffffffffffffffffffffffffffffffffffff1681526020019081526020016000206002018181548110611b5157611b50613021565b5b9060005260206000200160006101000a81549073ffffffffffffffffffffffffffffffffffffffff02191690555b8080611b8a90613050565b915050611a44565b506000600560003373ffffffffffffffffffffffffffffffffffffffff1673ffffffffffffffffffffffffffffffffffffffff16815260200190815260200160002060030180549050905060005b81811015611d2e578473ffffffffffffffffffffffffffffffffffffffff16600560003373ffffffffffffffffffffffffffffffffffffffff1673ffffffffffffffffffffffffffffffffffffffff1681526020019081526020016000206003018281548110611c5357611c52613021565b5b9060005260206000200160009054906101000a900473ffffffffffffffffffffffffffffffffffffffff1673ffffffffffffffffffffffffffffffffffffffff1603611d1b57600560003373ffffffffffffffffffffffffffffffffffffffff1673ffffffffffffffffffffffffffffffffffffffff1681526020019081526020016000206003018181548110611ced57611cec613021565b5b9060005260206000200160006101000a81549073ffffffffffffffffffffffffffffffffffffffff02191690555b8080611d2690613050565b915050611be0565b506000600560003373ffffffffffffffffffffffffffffffffffffffff1673ffffffffffffffffffffffffffffffffffffffff16815260200190815260200160002060010160008673ffffffffffffffffffffffffffffffffffffffff1673ffffffffffffffffffffffffffffffffffffffff16815260200190815260200160002060006101000a81548160ff0219169083151502179055506001600560008673ffffffffffffffffffffffffffffffffffffffff1673ffffffffffffffffffffffffffffffffffffffff1681526020019081526020016000206005016000828254611e1a9190613098565b925050819055506001600560003373ffffffffffffffffffffffffffffffffffffffff1673ffffffffffffffffffffffffffffffffffffffff1681526020019081526020016000206006016000828254611e749190613098565b925050819055506000600560008673ffffffffffffffffffffffffffffffffffffffff1673ffffffffffffffffffffffffffffffffffffffff16815260200190815260200160002060050154148015611f0f57506000600560008673ffffffffffffffffffffffffffffffffffffffff1673ffffffffffffffffffffffffffffffffffffffff16815260200190815260200160002060060154145b1561204d576000600180549050905060005b81811015611fef578573ffffffffffffffffffffffffffffffffffffffff1660018281548110611f5457611f53613021565b5b9060005260206000200160009054906101000a900473ffffffffffffffffffffffffffffffffffffffff1673ffffffffffffffffffffffffffffffffffffffff1603611fdc5760018181548110611fae57611fad613021565b5b9060005260206000200160006101000a81549073ffffffffffffffffffffffffffffffffffffffff02191690555b8080611fe790613050565b915050611f21565b506000600560008773ffffffffffffffffffffffffffffffffffffffff1673ffffffffffffffffffffffffffffffffffffffff16815260200190815260200160002060040160016101000a81548160ff021916908315150217905550505b6120e460018054806020026020016040519081016040528092919081815260200182805480156120d257602002820191906000526020600020905b8160009054906101000a900473ffffffffffffffffffffffffffffffffffffffff1673ffffffffffffffffffffffffffffffffffffffff1681526020019060010190808311612088575b50505050506120df61037f565b612252565b50505050565b6001600560008373ffffffffffffffffffffffffffffffffffffffff1673ffffffffffffffffffffffffffffffffffffffff16815260200190815260200160002060040160026101000a81548160ff0219169083151502179055506064600560008373ffffffffffffffffffffffffffffffffffffffff1673ffffffffffffffffffffffffffffffffffffffff1681526020019081526020016000206009018190555050565b60001515600560008373ffffffffffffffffffffffffffffffffffffffff1673ffffffffffffffffffffffffffffffffffffffff16815260200190815260200160002060040160019054906101000a900460ff1615150361224f576001819080600181540180825580915050600190039060005260206000200160009091909190916101000a81548173ffffffffffffffffffffffffffffffffffffffff021916908373ffffffffffffffffffffffffffffffffffffffff1602179055505b50565b6000605590506122628383612802565b60008351905060005b60648110156126db5760005b828110156126c7576000806005600089858151811061229957612298613021565b5b602002602001015173ffffffffffffffffffffffffffffffffffffffff1673ffffffffffffffffffffffffffffffffffffffff1681526020019081526020016000206005015403612356578460646122f19190613098565b6005600089858151811061230857612307613021565b5b602002602001015173ffffffffffffffffffffffffffffffffffffffff1673ffffffffffffffffffffffffffffffffffffffff168152602001908152602001600020600701819055506126b3565b60005b600560008985815181106123705761236f613021565b5b602002602001015173ffffffffffffffffffffffffffffffffffffffff1673ffffffffffffffffffffffffffffffffffffffff16815260200190815260200160002060020180549050811015612593576000600560008a86815181106123d9576123d8613021565b5b602002602001015173ffffffffffffffffffffffffffffffffffffffff1673ffffffffffffffffffffffffffffffffffffffff16815260200190815260200160002060020182815481106124305761242f613021565b5b9060005260206000200160009054906101000a900473ffffffffffffffffffffffffffffffffffffffff1690506000600560008373ffffffffffffffffffffffffffffffffffffffff1673ffffffffffffffffffffffffffffffffffffffff16815260200190815260200160002060060154036124e2576040517f08c379a00000000000000000000000000000000000000000000000000000000081526004016124d990613288565b60405180910390fd5b600560008273ffffffffffffffffffffffffffffffffffffffff1673ffffffffffffffffffffffffffffffffffffffff16815260200190815260200160002060060154600560008373ffffffffffffffffffffffffffffffffffffffff1673ffffffffffffffffffffffffffffffffffffffff1681526020019081526020016000206007015461257291906132d7565b8361257d9190612fb6565b925050808061258b90613050565b915050612359565b5080856125a09190613308565b60648660646125af9190613098565b6125b99190613308565b6125c39190612fb6565b905060006064826125d4919061334a565b905080821461264f576064826125ea91906132d7565b600560008a868151811061260157612600613021565b5b602002602001015173ffffffffffffffffffffffffffffffffffffffff1673ffffffffffffffffffffffffffffffffffffffff168152602001908152602001600020600701819055506126b1565b81600560008a868151811061266757612666613021565b5b602002602001015173ffffffffffffffffffffffffffffffffffffffff1673ffffffffffffffffffffffffffffffffffffffff168152602001908152602001600020600701819055505b505b5080806126bf90613050565b915050612277565b5080806126d390613050565b91505061226b565b5061276b600180548060200260200160405190810160405280929190818152602001828054801561276157602002820191906000526020600020905b8160009054906101000a900473ffffffffffffffffffffffffffffffffffffffff1673ffffffffffffffffffffffffffffffffffffffff1681526020019060010190808311612717575b5050505050612899565b60029080519060200190612780929190612acd565b5050505050565b60006001826127969190613098565b60646127a291906132d7565b905080600560008573ffffffffffffffffffffffffffffffffffffffff1673ffffffffffffffffffffffffffffffffffffffff16815260200190815260200160002060090160008282546127f69190613098565b92505081905550505050565b60008251905060005b818110156128935782606461282091906132d7565b6005600086848151811061283757612836613021565b5b602002602001015173ffffffffffffffffffffffffffffffffffffffff1673ffffffffffffffffffffffffffffffffffffffff16815260200190815260200160002060070181905550808061288b90613050565b91505061280b565b50505050565b6060600080600084519050849350600092505b6001816128b99190613098565b831015612ac557600091505b600183826128d39190613098565b6128dd9190613098565b821015612ab25760056000856001856128f69190612fb6565b8151811061290757612906613021565b5b602002602001015173ffffffffffffffffffffffffffffffffffffffff1673ffffffffffffffffffffffffffffffffffffffff168152602001908152602001600020600701546005600086858151811061296457612963613021565b5b602002602001015173ffffffffffffffffffffffffffffffffffffffff1673ffffffffffffffffffffffffffffffffffffffff168152602001908152602001600020600701541015612a9f5760008483815181106129c5576129c4613021565b5b60200260200101519050846001846129dd9190612fb6565b815181106129ee576129ed613021565b5b6020026020010151858481518110612a0957612a08613021565b5b602002602001019073ffffffffffffffffffffffffffffffffffffffff16908173ffffffffffffffffffffffffffffffffffffffff16815250508085600185612a529190612fb6565b81518110612a6357612a62613021565b5b602002602001019073ffffffffffffffffffffffffffffffffffffffff16908173ffffffffffffffffffffffffffffffffffffffff1681525050505b8180612aaa90613050565b9250506128c5565b8280612abd90613050565b9350506128ac565b505050919050565b828054828255906000526020600020908101928215612b46579160200282015b82811115612b455782518260006101000a81548173ffffffffffffffffffffffffffffffffffffffff021916908373ffffffffffffffffffffffffffffffffffffffff16021790555091602001919060010190612aed565b5b509050612b539190612b57565b5090565b5b80821115612b70576000816000905550600101612b58565b5090565b600080fd5b6000819050919050565b612b8c81612b79565b8114612b9757600080fd5b50565b600081359050612ba981612b83565b92915050565b600060208284031215612bc557612bc4612b74565b5b6000612bd384828501612b9a565b91505092915050565b600073ffffffffffffffffffffffffffffffffffffffff82169050919050565b6000612c0782612bdc565b9050919050565b612c1781612bfc565b82525050565b6000602082019050612c326000830184612c0e565b92915050565b612c4181612bfc565b8114612c4c57600080fd5b50565b600081359050612c5e81612c38565b92915050565b600060208284031215612c7a57612c79612b74565b5b6000612c8884828501612c4f565b91505092915050565b612c9a81612b79565b82525050565b6000602082019050612cb56000830184612c91565b92915050565b60008115159050919050565b612cd081612cbb565b82525050565b600061010082019050612cec600083018b612cc7565b612cf9602083018a612cc7565b612d066040830189612cc7565b612d136060830188612c91565b612d206080830187612c91565b612d2d60a0830186612c91565b612d3a60c0830185612c91565b612d4760e0830184612c91565b9998505050505050505050565b600082825260208201905092915050565b7f4552524f52203a2054686973206163636f756e7420616c726561647920766f7560008201527f6368656420627920796f752e0000000000000000000000000000000000000000602082015250565b6000612dc1602c83612d54565b9150612dcc82612d65565b604082019050919050565b60006020820190508181036000830152612df081612db4565b9050919050565b7f4552524f52203a204e6f7420616c6c6f7720746f20766f75636820796f75727360008201527f656c662e00000000000000000000000000000000000000000000000000000000602082015250565b6000612e53602483612d54565b9150612e5e82612df7565b604082019050919050565b60006020820190508181036000830152612e8281612e46565b9050919050565b7f4552524f52203a20566f75636820746f6b656e20646f6573206e6f7420696e6960008201527f74206f722072657365742e000000000000000000000000000000000000000000602082015250565b6000612ee5602b83612d54565b9150612ef082612e89565b604082019050919050565b60006020820190508181036000830152612f1481612ed8565b9050919050565b7f4552524f52203a204e6f7420656e6f75676820766f75636820746f6b656e2e00600082015250565b6000612f51601f83612d54565b9150612f5c82612f1b565b602082019050919050565b60006020820190508181036000830152612f8081612f44565b9050919050565b7f4e487b7100000000000000000000000000000000000000000000000000000000600052601160045260246000fd5b6000612fc182612b79565b9150612fcc83612b79565b9250828201905080821115612fe457612fe3612f87565b5b92915050565b6000606082019050612fff6000830186612c91565b61300c6020830185612c0e565b6130196040830184612c0e565b949350505050565b7f4e487b7100000000000000000000000000000000000000000000000000000000600052603260045260246000fd5b600061305b82612b79565b91507fffffffffffffffffffffffffffffffffffffffffffffffffffffffffffffffff820361308d5761308c612f87565b5b600182019050919050565b60006130a382612b79565b91506130ae83612b79565b92508282039050818111156130c6576130c5612f87565b5b92915050565b7f4552524f52203a20546f6b656e206d6f7573742062652070757263686173652f60008201527f20726573657420776974682031204554482e0000000000000000000000000000602082015250565b6000613128603283612d54565b9150613133826130cc565b604082019050919050565b600060208201905081810360008301526131578161311b565b9050919050565b7f4552524f52203a2054686973206163636f756e74206e6f7420766f756368207960008201527f65742c2063616e6e6f7420756e766f7563682e00000000000000000000000000602082015250565b60006131ba603383612d54565b91506131c58261315e565b604082019050919050565b600060208201905081810360008301526131e9816131ad565b9050919050565b7f4552524f52203a20566f7563686564206163636f756e74206e6f74206861766560008201527f206f7574626f756e64206c696e6b2028496d706f737369626c6529203d3d204260208201527f5547000000000000000000000000000000000000000000000000000000000000604082015250565b6000613272604283612d54565b915061327d826131f0565b606082019050919050565b600060208201905081810360008301526132a181613265565b9050919050565b7f4e487b7100000000000000000000000000000000000000000000000000000000600052601260045260246000fd5b60006132e282612b79565b91506132ed83612b79565b9250826132fd576132fc6132a8565b5b828204905092915050565b600061331382612b79565b915061331e83612b79565b925082820261332c81612b79565b9150828204841483151761334357613342612f87565b5b5092915050565b600061335582612b79565b915061336083612b79565b9250826133705761336f6132a8565b5b82820690509291505056fea26469706673582212201294a35a108c8534ab62fee51e4edc366b09b416986182c66508401e17f38d8864736f6c63430008110033",
  "immutableReferences": {},
  "source": "//SPDX-License-Identifier: University of Southampton\r\npragma solidity ^0.8.0;\r\n\r\n// import \"./hardhat/console.sol\";\r\n\r\ncontract Vouch{\r\n\r\n    address contract_owner = msg.sender;\r\n    address[] public nodes;\r\n    address[] public ranked;\r\n    address[] public punlishment_list;\r\n    uint public reset_tokenPrice = 1 ether;\r\n\r\n\r\n    event VouchLog(uint _time, address _from, address _to);\r\n\r\n    struct VouchDetails {\r\n        mapping(address => bool) vouchedBy;\r\n        mapping(address => bool) vouchedTo;\r\n        address[] vouchedByList;\r\n        address[] vouchedToList;\r\n        bool isVouched;\r\n        bool isAdded;\r\n        bool isinitVouchtoken;\r\n        uint total_inbound_link;\r\n        uint total_outbound_link;\r\n        uint prScore;\r\n        uint ranking;\r\n        uint vouch_token;  \r\n    }\r\n\r\n    modifier VouchVerification(address _vouchTo) {\r\n        //Check the node can vouch once on each account\r\n        require(vouchedList[_vouchTo].vouchedBy[msg.sender] == false, \"ERROR : This account already vouched by you.\");\r\n        //Check the node can not vouch on themself\r\n        require(_vouchTo != msg.sender, \"ERROR : Not allow to vouch yourself.\");\r\n        //check the vouch token initialize\r\n        require(vouchedList[msg.sender].isinitVouchtoken == true, \"ERROR : Vouch token does not init or reset.\");\r\n        //check right to make vouch\r\n        require(vouchedList[msg.sender].vouch_token > 50, \"ERROR : Not enough vouch token.\");\r\n        _;\r\n    }\r\n\r\n    modifier UnvouchVerification(address _unvouchTo) {\r\n        require(vouchedList[_unvouchTo].vouchedBy[msg.sender] == true, \"ERROR : This account not vouch yet, cannot unvouch.\");\r\n        _;\r\n    }\r\n\r\n    modifier setVouchTokenVerification(address _owner) {\r\n        //\r\n        require(msg.value == 1 ether, \"ERROR : Token moust be purchase/ reset with 1 ETH.\");\r\n        _;\r\n    }\r\n\r\n    mapping(address => VouchDetails) public vouchedList;\r\n    // mapping(address => uint) public total_inbound_link;\r\n    // mapping(address => uint) public total_outbound_link;\r\n\r\n    function Init_vouchToken(address _transac_owner) internal {\r\n        vouchedList[_transac_owner].isinitVouchtoken = true;\r\n        vouchedList[_transac_owner].vouch_token = 100;\r\n    }\r\n\r\n    function Init_score(address[] memory _nodes,uint _n) internal {\r\n\r\n        uint nodesLength = _nodes.length;\r\n        for(uint i = 0; i < nodesLength; i++) {\r\n            vouchedList[_nodes[i]].prScore = 100 / _n;\r\n            //Print score for debug\r\n            //console.log(vouchedList[_nodes[i]].prScore);\r\n        }\r\n\r\n    }\r\n\r\n    function nodes_punishment(address _node, uint _allnodesnum) internal {\r\n        uint punishment_cost = 100 / (_allnodesnum - 1);\r\n        vouchedList[_node].vouch_token -= punishment_cost;\r\n    }\r\n\r\n    function PagerankCal(address[] memory _nodes, uint _n) internal {\r\n        //Damping factor\r\n        uint _alpha = 85;\r\n        \r\n        Init_score(_nodes, _n);\r\n        //PageRank : PR(A) = 1 - d + d*(PR(Tn)/C(Tn)+....+...)\r\n        uint nodesLength = _nodes.length;\r\n\r\n        //Secure iteration for let score reach convergence\r\n        for(uint k = 0; k < 100; k++){\r\n\r\n            for(uint i = 0; i < nodesLength; i++) {\r\n                uint temp_score_sum;\r\n                if(vouchedList[_nodes[i]].total_inbound_link == 0) {\r\n                    // In case that node not have incoming link\r\n                    vouchedList[_nodes[i]].prScore = 100 - _alpha;\r\n                }else{\r\n                    for(uint j = 0; j < vouchedList[_nodes[i]].vouchedByList.length; j++){\r\n                        //Calculate sigma inbound node (PR(Tn)/C(Tn)+....+..)\r\n                        address temp_inbound_node = vouchedList[_nodes[i]].vouchedByList[j];\r\n                        require(vouchedList[temp_inbound_node].total_outbound_link != 0, \"ERROR : Vouched account not have outbound link (Impossible) == BUG\");\r\n                        temp_score_sum += (vouchedList[temp_inbound_node].prScore) / vouchedList[temp_inbound_node].total_outbound_link;\r\n                    }\r\n\r\n                    // pr = (1 - d) + d(E PR(T)/C(T))\r\n                    temp_score_sum = ((100 - _alpha) * 100) + ((_alpha) * temp_score_sum);\r\n                    uint mod_test = temp_score_sum % 100;\r\n                    if(temp_score_sum != mod_test){\r\n\r\n                        vouchedList[_nodes[i]].prScore = temp_score_sum / 100;\r\n                    }else {\r\n\r\n                        vouchedList[_nodes[i]].prScore = temp_score_sum;\r\n                    }\r\n                    \r\n                }\r\n\r\n            }\r\n        }\r\n        ranked = SortNodeRanking(nodes);\r\n        //Print score for debug\r\n        // for(uint l = 0 ; l < ranked.length; l++){\r\n        //     console.log(ranked[l]);\r\n        // }\r\n    }\r\n\r\n\r\n    function SortNodeRanking(address[] memory unrank_nodes) internal view returns(address[] memory ranked_nodes){\r\n\r\n        uint i;\r\n        uint j;\r\n        uint nodesLength = unrank_nodes.length;\r\n        ranked_nodes = unrank_nodes;\r\n\r\n        for (i = 0; i < nodesLength - 1; i++){\r\n             // Last i elements are already \r\n            // in place\r\n            for (j = 0; j < nodesLength - i - 1; j++){\r\n                if (vouchedList[ranked_nodes[j]].prScore < vouchedList[ranked_nodes[j + 1]].prScore){\r\n                    //swap(arr[j], arr[j + 1]);\r\n                    address current_node = ranked_nodes[j];\r\n                    ranked_nodes[j] = ranked_nodes[j + 1];\r\n                    ranked_nodes[j + 1] = current_node;\r\n                }   \r\n            }    \r\n        }\r\n        return ranked_nodes;\r\n    }\r\n\r\n    function purchase_vouchToken() public payable setVouchTokenVerification(msg.sender){\r\n        address trans_maker = msg.sender;\r\n        Init_vouchToken(trans_maker);\r\n\r\n    }\r\n\r\n    function purchase_vouchToken_Test(address _node) public {\r\n        Init_vouchToken(_node);\r\n    }\r\n\r\n    function delete_node(address _targetnode) public {\r\n\r\n         //Outbound update from target node (Target_node --> Node A)\r\n        uint len = vouchedList[_targetnode].vouchedToList.length;\r\n        for(uint i = 0; i < len ; i ++){\r\n            address out_targetnode = vouchedList[_targetnode].vouchedToList[i];\r\n            vouchedList[out_targetnode].vouchedBy[_targetnode] = false;\r\n            //Update inbound link array which target node vouch to\r\n            uint len_inlink = vouchedList[out_targetnode].vouchedByList.length;\r\n            for(uint j = 0; j < len_inlink; j++){\r\n                if(vouchedList[out_targetnode].vouchedByList[j] == _targetnode){\r\n                    delete vouchedList[out_targetnode].vouchedByList[j];\r\n                }\r\n            }\r\n            //Update inbound count parameter of node that target node vouch to\r\n            vouchedList[out_targetnode].total_inbound_link -= 1;\r\n            //Check if node must be delete out from network\r\n            if(vouchedList[out_targetnode].total_inbound_link == 0 && vouchedList[out_targetnode].total_outbound_link == 0){\r\n                //nodes.pop(_unvouchTo);\r\n                uint len_nodes = nodes.length;\r\n                for(uint k = 0; k < len_nodes ; k ++){\r\n                    if(nodes[k] == out_targetnode){\r\n                        delete nodes[k];\r\n                    }\r\n                }\r\n                vouchedList[out_targetnode].isAdded = false;\r\n            }\r\n        }\r\n        //Inbound update from target node (Node A --> Target_node)\r\n        uint len_to = vouchedList[_targetnode].vouchedByList.length;\r\n        for(uint a = 0; a < len_to; a++){\r\n           address in_targetnode = vouchedList[_targetnode].vouchedByList[a];\r\n           vouchedList[in_targetnode].vouchedTo[_targetnode] = false;\r\n           //Update outbound link array which vouch to target node\r\n           uint lem_outlink = vouchedList[in_targetnode].vouchedToList.length;\r\n           for(uint b = 0; b < lem_outlink; b++){\r\n                if(vouchedList[in_targetnode].vouchedToList[b] == _targetnode){\r\n                    delete vouchedList[in_targetnode].vouchedToList[b];\r\n                }\r\n            }\r\n            //Update inbound count parameter of node that target node vouch to\r\n            vouchedList[in_targetnode].total_outbound_link -= 1;\r\n            if(vouchedList[in_targetnode].total_inbound_link == 0 && vouchedList[in_targetnode].total_outbound_link == 0){\r\n                //nodes.pop(_unvouchTo);\r\n                uint len_nodes2 = nodes.length;\r\n                for(uint c = 0; c < len_nodes2 ; c ++){\r\n                    if(nodes[c] == in_targetnode){\r\n                        delete nodes[c];\r\n                    }\r\n                }\r\n                vouchedList[in_targetnode].isAdded = false;\r\n            }else{\r\n                punlishment_list.push(in_targetnode);\r\n            }\r\n        }\r\n        //Applied penalty of node in penalty list\r\n        uint n = getNodesCount();\r\n        uint penalty_len = punlishment_list.length;\r\n        for(uint f = 0; f < penalty_len; f++) {\r\n            address temp = punlishment_list[f];\r\n            nodes_punishment(temp,n);\r\n            delete punlishment_list[f];\r\n        }\r\n        \r\n\r\n    }\r\n\r\n\r\n    function makeVouch(address _vouchTo) public VouchVerification(_vouchTo){\r\n        \r\n        //Flag to vouched (Check vouch once)\r\n        vouchedList[_vouchTo].isVouched = true;\r\n        //Store inbound/outbount link to vouched/voucher account node\r\n        vouchedList[_vouchTo].vouchedBy[msg.sender] = true;\r\n        vouchedList[_vouchTo].vouchedByList.push(msg.sender);\r\n        //Store outbount/inbound link to voucher/vouched account node\r\n        vouchedList[msg.sender].vouchedTo[_vouchTo] = true;\r\n        vouchedList[msg.sender].vouchedToList.push(_vouchTo);\r\n        //Store count for inbound and out bound link\r\n        vouchedList[_vouchTo].total_inbound_link += 1;\r\n        vouchedList[msg.sender].total_outbound_link += 1;\r\n        // total_inbound_link[_vouchTo] += 1;\r\n        // total_outbound_link[msg.sender] += 1;\r\n\r\n        //Store nodes in network\r\n        addNodes(_vouchTo);\r\n        addNodes(msg.sender);\r\n        //To verified node in network\r\n        vouchedList[_vouchTo].isAdded = true;\r\n        vouchedList[msg.sender].isAdded = true;\r\n        //calculate pagerank\r\n        PagerankCal(nodes,getNodesCount());\r\n        emit VouchLog(block.timestamp, msg.sender, _vouchTo);\r\n\r\n    }\r\n\r\n    //Remove edge out (Unvouch to account)\r\n    function unvouched(address _unvouchTo) public UnvouchVerification(_unvouchTo){\r\n\r\n        //Flag to vouched (Check vouch once)\r\n        vouchedList[_unvouchTo].isVouched = false;\r\n        //Store inbound link to vouched account node\r\n        vouchedList[_unvouchTo].vouchedBy[msg.sender] = false;\r\n        //vouchedList[_unvouchTo].vouchedByList.pop(msg.sender);\r\n        //Update array list of inbound link of unvouched node and outbound of unvoucher node\r\n        uint len = vouchedList[_unvouchTo].vouchedByList.length;\r\n        for(uint i = 0; i < len ; i ++){\r\n            if(vouchedList[_unvouchTo].vouchedByList[i] == msg.sender){\r\n                delete vouchedList[_unvouchTo].vouchedByList[i];\r\n            }\r\n        }\r\n        uint len_to = vouchedList[msg.sender].vouchedToList.length;\r\n        for(uint j = 0; j < len_to ; j ++){\r\n            if(vouchedList[msg.sender].vouchedToList[j] == _unvouchTo){\r\n                delete vouchedList[msg.sender].vouchedToList[j];\r\n            }\r\n        }\r\n        //Store outbount link to voucher account node\r\n        vouchedList[msg.sender].vouchedTo[_unvouchTo] = false;\r\n        //Store count for inbound and out bound link\r\n        vouchedList[_unvouchTo].total_inbound_link -= 1;\r\n        vouchedList[msg.sender].total_outbound_link -= 1;\r\n        // total_inbound_link[_vouchTo] += 1;\r\n        // total_outbound_link[msg.sender] += 1;\r\n\r\n        if(vouchedList[_unvouchTo].total_inbound_link == 0 && vouchedList[_unvouchTo].total_outbound_link == 0){\r\n            //nodes.pop(_unvouchTo);\r\n            uint len_nodes = nodes.length;\r\n            for(uint i = 0; i < len_nodes ; i ++){\r\n                if(nodes[i] == _unvouchTo){\r\n                    delete nodes[i];\r\n                }\r\n            }\r\n            vouchedList[_unvouchTo].isAdded = false;\r\n        }\r\n        //calculate pagerank\r\n        PagerankCal(nodes,getNodesCount());\r\n\r\n    }\r\n\r\n    // Add node into network\r\n    function addNodes(address _node) internal {\r\n\r\n        if(vouchedList[_node].isAdded == false) {\r\n            nodes.push(_node);\r\n        }\r\n    }\r\n\r\n    //Get number of all node in the network\r\n    // function getNodesCount() internal view returns(uint){\r\n    //     uint count;\r\n    //     count = nodes.length; // n variables\r\n    //     return count;\r\n    // }\r\n     //Get number of all node in the network\r\n    function getNodesCount() public view returns(uint){\r\n        uint count;\r\n        count = nodes.length; // n variables\r\n        return count;\r\n    }\r\n\r\n    function get_scores(address _node) public view returns(uint) {\r\n        return vouchedList[_node].prScore;\r\n    }\r\n\r\n}\r\n\r\n",
  "sourcePath": "/Users/teera/Desktop/Dissertation/contracts/reputation_backup160822.sol",
  "compiler": {
    "name": "solc",
    "version": "0.8.17+commit.8df45f5f.Emscripten.clang"
  },
  "schemaVersion": "3.4.10",
  "updatedAt": "2022-10-05T01:03:35.211Z",
  "networkType": "ethereum",
  "devdoc": {
    "kind": "dev",
    "methods": {},
    "version": 1
  },
  "userdoc": {
    "kind": "user",
    "methods": {},
    "version": 1
  }
}